{
  "_format": "hh-sol-artifact-1",
  "contractName": "Demo",
  "sourceName": "contracts/Demo.sol",
  "abi": [
    {
      "inputs": [],
      "stateMutability": "nonpayable",
      "type": "constructor"
    },
    {
      "anonymous": false,
      "inputs": [
        {
          "indexed": true,
          "internalType": "address",
          "name": "user",
          "type": "address"
        },
        {
          "indexed": true,
          "internalType": "string",
          "name": "new_name",
          "type": "string"
        }
      ],
      "name": "ChangeName",
      "type": "event"
    },
    {
      "inputs": [
        {
          "internalType": "string",
          "name": "new_name",
          "type": "string"
        }
      ],
      "name": "change_name",
      "outputs": [],
      "stateMutability": "nonpayable",
      "type": "function"
    },
    {
      "inputs": [],
      "name": "name",
      "outputs": [
        {
          "internalType": "string",
          "name": "",
          "type": "string"
        }
      ],
      "stateMutability": "view",
      "type": "function"
    }
  ],
  "bytecode": "0x608060405234801561001057600080fd5b506040518060400160405280600181526020017f4c000000000000000000000000000000000000000000000000000000000000008152506000908051906020019061005c9291906100a3565b5033600160006101000a81548173ffffffffffffffffffffffffffffffffffffffff021916908373ffffffffffffffffffffffffffffffffffffffff1602179055506101a7565b8280546100af90610146565b90600052602060002090601f0160209004810192826100d15760008555610118565b82601f106100ea57805160ff1916838001178555610118565b82800160010185558215610118579182015b828111156101175782518255916020019190600101906100fc565b5b5090506101259190610129565b5090565b5b8082111561014257600081600090555060010161012a565b5090565b6000600282049050600182168061015e57607f821691505b6020821081141561017257610171610178565b5b50919050565b7f4e487b7100000000000000000000000000000000000000000000000000000000600052602260045260246000fd5b610628806101b66000396000f3fe608060405234801561001057600080fd5b50600436106100365760003560e01c806306fdde031461003b578063e349cb1214610059575b600080fd5b610043610075565b60405161005091906103f6565b60405180910390f35b610073600480360381019061006e9190610311565b610103565b005b60008054610082906104f7565b80601f01602080910402602001604051908101604052809291908181526020018280546100ae906104f7565b80156100fb5780601f106100d0576101008083540402835291602001916100fb565b820191906000526020600020905b8154815290600101906020018083116100de57829003601f168201915b505050505081565b600160009054906101000a900473ffffffffffffffffffffffffffffffffffffffff1673ffffffffffffffffffffffffffffffffffffffff163373ffffffffffffffffffffffffffffffffffffffff1614610193576040517f08c379a000000000000000000000000000000000000000000000000000000000815260040161018a90610418565b60405180910390fd5b80600090805190602001906101a9929190610206565b50806040516101b891906103df565b60405180910390203373ffffffffffffffffffffffffffffffffffffffff167fbb65f02a08ca2759ab26ef9929bf648f890a58e115823859923e3a6d0c6dfca860405160405180910390a350565b828054610212906104f7565b90600052602060002090601f016020900481019282610234576000855561027b565b82601f1061024d57805160ff191683800117855561027b565b8280016001018555821561027b579182015b8281111561027a57825182559160200191906001019061025f565b5b509050610288919061028c565b5090565b5b808211156102a557600081600090555060010161028d565b5090565b60006102bc6102b78461045d565b610438565b9050828152602081018484840111156102d457600080fd5b6102df8482856104b5565b509392505050565b600082601f8301126102f857600080fd5b81356103088482602086016102a9565b91505092915050565b60006020828403121561032357600080fd5b600082013567ffffffffffffffff81111561033d57600080fd5b610349848285016102e7565b91505092915050565b600061035d8261048e565b6103678185610499565b93506103778185602086016104c4565b610380816105b8565b840191505092915050565b60006103968261048e565b6103a081856104aa565b93506103b08185602086016104c4565b80840191505092915050565b60006103c9601383610499565b91506103d4826105c9565b602082019050919050565b60006103eb828461038b565b915081905092915050565b600060208201905081810360008301526104108184610352565b905092915050565b60006020820190508181036000830152610431816103bc565b9050919050565b6000610442610453565b905061044e8282610529565b919050565b6000604051905090565b600067ffffffffffffffff82111561047857610477610589565b5b610481826105b8565b9050602081019050919050565b600081519050919050565b600082825260208201905092915050565b600081905092915050565b82818337600083830152505050565b60005b838110156104e25780820151818401526020810190506104c7565b838111156104f1576000848401525b50505050565b6000600282049050600182168061050f57607f821691505b602082108114156105235761052261055a565b5b50919050565b610532826105b8565b810181811067ffffffffffffffff8211171561055157610550610589565b5b80604052505050565b7f4e487b7100000000000000000000000000000000000000000000000000000000600052602260045260246000fd5b7f4e487b7100000000000000000000000000000000000000000000000000000000600052604160045260246000fd5b6000601f19601f8301169050919050565b7f5265737472696374656420746f204f776e65720000000000000000000000000060008201525056fea26469706673582212207338227a6280dfe69cf5b2c7f1b56e9f704f3024a10198cdc26d97e516b8e5a964736f6c63430008040033",
  "linkReferences": {},
  "deployedLinkReferences": {}
}