{
  "_format": "hh-sol-artifact-1",
  "contractName": "HHMarket",
  "sourceName": "contracts/HHMarket.sol",
  "abi": [
    {
      "inputs": [],
      "stateMutability": "nonpayable",
      "type": "constructor"
    },
    {
      "anonymous": false,
      "inputs": [
        {
          "indexed": true,
          "internalType": "uint256",
          "name": "itemId",
          "type": "uint256"
        },
        {
          "indexed": true,
          "internalType": "address",
          "name": "nftContract",
          "type": "address"
        },
        {
          "indexed": true,
          "internalType": "uint256",
          "name": "nftTokenId",
          "type": "uint256"
        },
        {
          "indexed": false,
          "internalType": "address",
          "name": "seller",
          "type": "address"
        },
        {
          "indexed": false,
          "internalType": "address",
          "name": "owner",
          "type": "address"
        },
        {
          "indexed": false,
          "internalType": "uint256",
          "name": "price",
          "type": "uint256"
        },
        {
          "indexed": false,
          "internalType": "bool",
          "name": "sold",
          "type": "bool"
        }
      ],
      "name": "emitListingItem",
      "type": "event"
    },
    {
      "inputs": [
        {
          "internalType": "address",
          "name": "nftContract",
          "type": "address"
        },
        {
          "internalType": "uint256",
          "name": "itemId",
          "type": "uint256"
        }
      ],
      "name": "createMarketSale",
      "outputs": [],
      "stateMutability": "payable",
      "type": "function"
    },
    {
      "inputs": [],
      "name": "fetchItemsMinted",
      "outputs": [
        {
          "components": [
            {
              "internalType": "uint256",
              "name": "itemId",
              "type": "uint256"
            },
            {
              "internalType": "address",
              "name": "nftContract",
              "type": "address"
            },
            {
              "internalType": "uint256",
              "name": "nftTokenId",
              "type": "uint256"
            },
            {
              "internalType": "address payable",
              "name": "seller",
              "type": "address"
            },
            {
              "internalType": "address payable",
              "name": "owner",
              "type": "address"
            },
            {
              "internalType": "uint256",
              "name": "price",
              "type": "uint256"
            },
            {
              "internalType": "bool",
              "name": "sold",
              "type": "bool"
            }
          ],
          "internalType": "struct HHMarket.ListingItem[]",
          "name": "",
          "type": "tuple[]"
        }
      ],
      "stateMutability": "view",
      "type": "function"
    },
    {
      "inputs": [],
      "name": "fetchMyNFTs",
      "outputs": [
        {
          "components": [
            {
              "internalType": "uint256",
              "name": "itemId",
              "type": "uint256"
            },
            {
              "internalType": "address",
              "name": "nftContract",
              "type": "address"
            },
            {
              "internalType": "uint256",
              "name": "nftTokenId",
              "type": "uint256"
            },
            {
              "internalType": "address payable",
              "name": "seller",
              "type": "address"
            },
            {
              "internalType": "address payable",
              "name": "owner",
              "type": "address"
            },
            {
              "internalType": "uint256",
              "name": "price",
              "type": "uint256"
            },
            {
              "internalType": "bool",
              "name": "sold",
              "type": "bool"
            }
          ],
          "internalType": "struct HHMarket.ListingItem[]",
          "name": "",
          "type": "tuple[]"
        }
      ],
      "stateMutability": "view",
      "type": "function"
    },
    {
      "inputs": [],
      "name": "fetchUnsoldListingItems",
      "outputs": [
        {
          "components": [
            {
              "internalType": "uint256",
              "name": "itemId",
              "type": "uint256"
            },
            {
              "internalType": "address",
              "name": "nftContract",
              "type": "address"
            },
            {
              "internalType": "uint256",
              "name": "nftTokenId",
              "type": "uint256"
            },
            {
              "internalType": "address payable",
              "name": "seller",
              "type": "address"
            },
            {
              "internalType": "address payable",
              "name": "owner",
              "type": "address"
            },
            {
              "internalType": "uint256",
              "name": "price",
              "type": "uint256"
            },
            {
              "internalType": "bool",
              "name": "sold",
              "type": "bool"
            }
          ],
          "internalType": "struct HHMarket.ListingItem[]",
          "name": "",
          "type": "tuple[]"
        }
      ],
      "stateMutability": "view",
      "type": "function"
    },
    {
      "inputs": [],
      "name": "getListingPrice",
      "outputs": [
        {
          "internalType": "uint256",
          "name": "",
          "type": "uint256"
        }
      ],
      "stateMutability": "view",
      "type": "function"
    },
    {
      "inputs": [
        {
          "internalType": "address",
          "name": "nftContract",
          "type": "address"
        },
        {
          "internalType": "uint256",
          "name": "nftTokenId",
          "type": "uint256"
        },
        {
          "internalType": "uint256",
          "name": "price",
          "type": "uint256"
        }
      ],
      "name": "mintListingItem",
      "outputs": [],
      "stateMutability": "payable",
      "type": "function"
    }
  ],
  "bytecode": "0x6080604052669fdf42f6e4800060045534801561001b57600080fd5b50600160008190555033600360006101000a81548173ffffffffffffffffffffffffffffffffffffffff021916908373ffffffffffffffffffffffffffffffffffffffff160217905550611961806100746000396000f3fe6080604052600436106100555760003560e01c806302e177c91461005a57806312e85585146100855780631546d638146100b0578063202e3740146100db578063217a283a14610106578063c23b139e14610122575b600080fd5b34801561006657600080fd5b5061006f61013e565b60405161007c91906115aa565b60405180910390f35b34801561009157600080fd5b5061009a6104ee565b6040516100a7919061164c565b60405180910390f35b3480156100bc57600080fd5b506100c56104f8565b6040516100d291906115aa565b60405180910390f35b3480156100e757600080fd5b506100f061080e565b6040516100fd91906115aa565b60405180910390f35b610120600480360381019061011b91906112e6565b610bbe565b005b61013c600480360381019061013791906112aa565b610f22565b005b6060600061014c60016111db565b905060008060005b838110156101f5573373ffffffffffffffffffffffffffffffffffffffff166005600060018461018491906116b1565b815260200190815260200160002060030160009054906101000a900473ffffffffffffffffffffffffffffffffffffffff1673ffffffffffffffffffffffffffffffffffffffff1614156101e2576001836101df91906116b1565b92505b80806101ed90611795565b915050610154565b5060008267ffffffffffffffff811115610238577f4e487b7100000000000000000000000000000000000000000000000000000000600052604160045260246000fd5b60405190808252806020026020018201604052801561027157816020015b61025e6111ff565b8152602001906001900390816102565790505b50905060005b848110156104e3573373ffffffffffffffffffffffffffffffffffffffff16600560006001846102a791906116b1565b815260200190815260200160002060030160009054906101000a900473ffffffffffffffffffffffffffffffffffffffff1673ffffffffffffffffffffffffffffffffffffffff1614156104d05760006005600060018461030891906116b1565b81526020019081526020016000206000015490506000600560008381526020019081526020016000209050806040518060e0016040529081600082015481526020016001820160009054906101000a900473ffffffffffffffffffffffffffffffffffffffff1673ffffffffffffffffffffffffffffffffffffffff1673ffffffffffffffffffffffffffffffffffffffff168152602001600282015481526020016003820160009054906101000a900473ffffffffffffffffffffffffffffffffffffffff1673ffffffffffffffffffffffffffffffffffffffff1673ffffffffffffffffffffffffffffffffffffffff1681526020016004820160009054906101000a900473ffffffffffffffffffffffffffffffffffffffff1673ffffffffffffffffffffffffffffffffffffffff1673ffffffffffffffffffffffffffffffffffffffff168152602001600582015481526020016006820160009054906101000a900460ff1615151515815250508486815181106104b3577f4e487b7100000000000000000000000000000000000000000000000000000000600052603260045260246000fd5b60200260200101819052506001856104cb91906116b1565b945050505b80806104db90611795565b915050610277565b508094505050505090565b6000600454905090565b6060600061050660016111db565b9050600061051460026111db565b61051e60016111db565b6105289190611707565b90506000808267ffffffffffffffff81111561056d577f4e487b7100000000000000000000000000000000000000000000000000000000600052604160045260246000fd5b6040519080825280602002602001820160405280156105a657816020015b6105936111ff565b81526020019060019003908161058b5790505b50905060005b8481101561080357600073ffffffffffffffffffffffffffffffffffffffff16600560006001846105dd91906116b1565b815260200190815260200160002060040160009054906101000a900473ffffffffffffffffffffffffffffffffffffffff1673ffffffffffffffffffffffffffffffffffffffff1614156107f057600060018261063a91906116b1565b90506000600560008381526020019081526020016000209050806040518060e0016040529081600082015481526020016001820160009054906101000a900473ffffffffffffffffffffffffffffffffffffffff1673ffffffffffffffffffffffffffffffffffffffff1673ffffffffffffffffffffffffffffffffffffffff168152602001600282015481526020016003820160009054906101000a900473ffffffffffffffffffffffffffffffffffffffff1673ffffffffffffffffffffffffffffffffffffffff1673ffffffffffffffffffffffffffffffffffffffff1681526020016004820160009054906101000a900473ffffffffffffffffffffffffffffffffffffffff1673ffffffffffffffffffffffffffffffffffffffff1673ffffffffffffffffffffffffffffffffffffffff168152602001600582015481526020016006820160009054906101000a900460ff1615151515815250508486815181106107d3577f4e487b7100000000000000000000000000000000000000000000000000000000600052603260045260246000fd5b60200260200101819052506001856107eb91906116b1565b945050505b80806107fb90611795565b9150506105ac565b508094505050505090565b6060600061081c60016111db565b905060008060005b838110156108c5573373ffffffffffffffffffffffffffffffffffffffff166005600060018461085491906116b1565b815260200190815260200160002060040160009054906101000a900473ffffffffffffffffffffffffffffffffffffffff1673ffffffffffffffffffffffffffffffffffffffff1614156108b2576001836108af91906116b1565b92505b80806108bd90611795565b915050610824565b5060008267ffffffffffffffff811115610908577f4e487b7100000000000000000000000000000000000000000000000000000000600052604160045260246000fd5b60405190808252806020026020018201604052801561094157816020015b61092e6111ff565b8152602001906001900390816109265790505b50905060005b84811015610bb3573373ffffffffffffffffffffffffffffffffffffffff166005600060018461097791906116b1565b815260200190815260200160002060040160009054906101000a900473ffffffffffffffffffffffffffffffffffffffff1673ffffffffffffffffffffffffffffffffffffffff161415610ba0576000600560006001846109d891906116b1565b81526020019081526020016000206000015490506000600560008381526020019081526020016000209050806040518060e0016040529081600082015481526020016001820160009054906101000a900473ffffffffffffffffffffffffffffffffffffffff1673ffffffffffffffffffffffffffffffffffffffff1673ffffffffffffffffffffffffffffffffffffffff168152602001600282015481526020016003820160009054906101000a900473ffffffffffffffffffffffffffffffffffffffff1673ffffffffffffffffffffffffffffffffffffffff1673ffffffffffffffffffffffffffffffffffffffff1681526020016004820160009054906101000a900473ffffffffffffffffffffffffffffffffffffffff1673ffffffffffffffffffffffffffffffffffffffff1673ffffffffffffffffffffffffffffffffffffffff168152602001600582015481526020016006820160009054906101000a900460ff161515151581525050848681518110610b83577f4e487b7100000000000000000000000000000000000000000000000000000000600052603260045260246000fd5b6020026020010181905250600185610b9b91906116b1565b945050505b8080610bab90611795565b915050610947565b508094505050505090565b60026000541415610c04576040517f08c379a0000000000000000000000000000000000000000000000000000000008152600401610bfb9061162c565b60405180910390fd5b600260008190555060008111610c4f576040517f08c379a0000000000000000000000000000000000000000000000000000000008152600401610c46906115cc565b60405180910390fd5b6004543414610c93576040517f08c379a0000000000000000000000000000000000000000000000000000000008152600401610c8a9061160c565b60405180910390fd5b610c9d60016111e9565b6000610ca960016111db565b90506040518060e001604052808281526020018573ffffffffffffffffffffffffffffffffffffffff1681526020018481526020013373ffffffffffffffffffffffffffffffffffffffff168152602001600073ffffffffffffffffffffffffffffffffffffffff16815260200183815260200160001515815250600560008381526020019081526020016000206000820151816000015560208201518160010160006101000a81548173ffffffffffffffffffffffffffffffffffffffff021916908373ffffffffffffffffffffffffffffffffffffffff1602179055506040820151816002015560608201518160030160006101000a81548173ffffffffffffffffffffffffffffffffffffffff021916908373ffffffffffffffffffffffffffffffffffffffff16021790555060808201518160040160006101000a81548173ffffffffffffffffffffffffffffffffffffffff021916908373ffffffffffffffffffffffffffffffffffffffff16021790555060a0820151816005015560c08201518160060160006101000a81548160ff0219169083151502179055509050508373ffffffffffffffffffffffffffffffffffffffff166323b872dd3330866040518463ffffffff1660e01b8152600401610e8a9392919061152e565b600060405180830381600087803b158015610ea457600080fd5b505af1158015610eb8573d6000803e3d6000fd5b50505050828473ffffffffffffffffffffffffffffffffffffffff16827f17ef80e23f3acd81683cfd201b7bc03a33975865fd2f268abebf36ec7f4339ab336000876000604051610f0c9493929190611565565b60405180910390a4506001600081905550505050565b60026000541415610f68576040517f08c379a0000000000000000000000000000000000000000000000000000000008152600401610f5f9061162c565b60405180910390fd5b6002600081905550600060056000838152602001908152602001600020600501549050600060056000848152602001908152602001600020600201549050813414610fe8576040517f08c379a0000000000000000000000000000000000000000000000000000000008152600401610fdf906115ec565b60405180910390fd5b6005600084815260200190815260200160002060030160009054906101000a900473ffffffffffffffffffffffffffffffffffffffff1673ffffffffffffffffffffffffffffffffffffffff166108fc349081150290604051600060405180830381858888f19350505050158015611064573d6000803e3d6000fd5b508373ffffffffffffffffffffffffffffffffffffffff166323b872dd3033846040518463ffffffff1660e01b81526004016110a29392919061152e565b600060405180830381600087803b1580156110bc57600080fd5b505af11580156110d0573d6000803e3d6000fd5b50505050336005600085815260200190815260200160002060040160006101000a81548173ffffffffffffffffffffffffffffffffffffffff021916908373ffffffffffffffffffffffffffffffffffffffff16021790555060016005600085815260200190815260200160002060060160006101000a81548160ff02191690831515021790555061116260026111e9565b600360009054906101000a900473ffffffffffffffffffffffffffffffffffffffff1673ffffffffffffffffffffffffffffffffffffffff166108fc6004549081150290604051600060405180830381858888f193505050501580156111cc573d6000803e3d6000fd5b50505060016000819055505050565b600081600001549050919050565b6001816000016000828254019250508190555050565b6040518060e0016040528060008152602001600073ffffffffffffffffffffffffffffffffffffffff16815260200160008152602001600073ffffffffffffffffffffffffffffffffffffffff168152602001600073ffffffffffffffffffffffffffffffffffffffff168152602001600081526020016000151581525090565b60008135905061128f816118fd565b92915050565b6000813590506112a481611914565b92915050565b600080604083850312156112bd57600080fd5b60006112cb85828601611280565b92505060206112dc85828601611295565b9150509250929050565b6000806000606084860312156112fb57600080fd5b600061130986828701611280565b935050602061131a86828701611295565b925050604061132b86828701611295565b9150509250925092565b60006113418383611482565b60e08301905092915050565b6113568161174d565b82525050565b6113658161173b565b82525050565b6113748161173b565b82525050565b600061138582611677565b61138f818561168f565b935061139a83611667565b8060005b838110156113cb5781516113b28882611335565b97506113bd83611682565b92505060018101905061139e565b5085935050505092915050565b6113e18161175f565b82525050565b6113f08161175f565b82525050565b6000611403601e836116a0565b915061140e8261180d565b602082019050919050565b60006114266033836116a0565b915061143182611836565b604082019050919050565b60006114496024836116a0565b915061145482611885565b604082019050919050565b600061146c601f836116a0565b9150611477826118d4565b602082019050919050565b60e0820160008201516114986000850182611510565b5060208201516114ab602085018261135c565b5060408201516114be6040850182611510565b5060608201516114d1606085018261134d565b5060808201516114e4608085018261134d565b5060a08201516114f760a0850182611510565b5060c082015161150a60c08501826113d8565b50505050565b6115198161178b565b82525050565b6115288161178b565b82525050565b6000606082019050611543600083018661136b565b611550602083018561136b565b61155d604083018461151f565b949350505050565b600060808201905061157a600083018761136b565b611587602083018661136b565b611594604083018561151f565b6115a160608301846113e7565b95945050505050565b600060208201905081810360008301526115c4818461137a565b905092915050565b600060208201905081810360008301526115e5816113f6565b9050919050565b6000602082019050818103600083015261160581611419565b9050919050565b600060208201905081810360008301526116258161143c565b9050919050565b600060208201905081810360008301526116458161145f565b9050919050565b6000602082019050611661600083018461151f565b92915050565b6000819050602082019050919050565b600081519050919050565b6000602082019050919050565b600082825260208201905092915050565b600082825260208201905092915050565b60006116bc8261178b565b91506116c78361178b565b9250827fffffffffffffffffffffffffffffffffffffffffffffffffffffffffffffffff038211156116fc576116fb6117de565b5b828201905092915050565b60006117128261178b565b915061171d8361178b565b9250828210156117305761172f6117de565b5b828203905092915050565b60006117468261176b565b9050919050565b60006117588261176b565b9050919050565b60008115159050919050565b600073ffffffffffffffffffffffffffffffffffffffff82169050919050565b6000819050919050565b60006117a08261178b565b91507fffffffffffffffffffffffffffffffffffffffffffffffffffffffffffffffff8214156117d3576117d26117de565b5b600182019050919050565b7f4e487b7100000000000000000000000000000000000000000000000000000000600052601160045260246000fd5b7f5072696365206d757374206265206174206c65617374206f6e65207765690000600082015250565b7f506c65617365207375626d6974207468652061736b696e67207072696365206960008201527f6e206f7264657220746f20636f6e74696e756500000000000000000000000000602082015250565b7f5072696365206d75737420626520657175616c20746f206c697374696e67207060008201527f7269636500000000000000000000000000000000000000000000000000000000602082015250565b7f5265656e7472616e637947756172643a207265656e7472616e742063616c6c00600082015250565b6119068161173b565b811461191157600080fd5b50565b61191d8161178b565b811461192857600080fd5b5056fea264697066735822122050d5e8aea1eed62392c129dbc12a25a1496a1c13ae2186691dd85017ce7c1deb64736f6c63430008040033",
  "linkReferences": {},
  "deployedLinkReferences": {}
}