{
  "contractName": "Demo",
  "abi": [
    {
      "inputs": [],
      "stateMutability": "nonpayable",
      "type": "constructor"
    },
    {
      "anonymous": false,
      "inputs": [
        {
          "indexed": true,
          "internalType": "address",
          "name": "user",
          "type": "address"
        },
        {
          "indexed": true,
          "internalType": "string",
          "name": "new_name",
          "type": "string"
        }
      ],
      "name": "ChangeName",
      "type": "event"
    },
    {
      "inputs": [],
      "name": "name",
      "outputs": [
        {
          "internalType": "string",
          "name": "",
          "type": "string"
        }
      ],
      "stateMutability": "view",
      "type": "function",
      "constant": true
    },
    {
      "inputs": [
        {
          "internalType": "string",
          "name": "new_name",
          "type": "string"
        }
      ],
      "name": "change_name",
      "outputs": [],
      "stateMutability": "nonpayable",
      "type": "function"
    }
  ],
  "bytecode": "0x608060405234801561001057600080fd5b506040805180820190915260018082527f4c0000000000000000000000000000000000000000000000000000000000000060209092019182526100559160009161006d565b5060018054600160a060020a0319163317905561015a565b82805461007990610106565b90600052602060002090601f01602090048101928261009b57600085556100e1565b82601f106100b457805160ff19168380011785556100e1565b828001600101855582156100e1579182015b828111156100e15782518255916020019190600101906100c6565b506100ed9291506100f1565b5090565b5b808211156100ed57600081556001016100f2565b60028104600182168061011a57607f821691505b60208210811415610154577f4e487b7100000000000000000000000000000000000000000000000000000000600052602260045260246000fd5b50919050565b610472806101696000396000f3fe608060405234801561001057600080fd5b5060043610610052577c0100000000000000000000000000000000000000000000000000000000600035046306fdde038114610057578063e349cb1214610075575b600080fd5b61005f61008a565b60405161006c919061031f565b60405180910390f35b610088610083366004610262565b610118565b005b60008054610097906103b9565b80601f01602080910402602001604051908101604052809291908181526020018280546100c3906103b9565b80156101105780601f106100e557610100808354040283529160200191610110565b820191906000526020600020905b8154815290600101906020018083116100f357829003601f168201915b505050505081565b60015473ffffffffffffffffffffffffffffffffffffffff163314610172576040517f08c379a000000000000000000000000000000000000000000000000000000000815260040161016990610352565b60405180910390fd5b80516101859060009060208401906101c9565b50806040516101949190610303565b6040519081900381209033907fbb65f02a08ca2759ab26ef9929bf648f890a58e115823859923e3a6d0c6dfca890600090a350565b8280546101d5906103b9565b90600052602060002090601f0160209004810192826101f7576000855561023d565b82601f1061021057805160ff191683800117855561023d565b8280016001018555821561023d579182015b8281111561023d578251825591602001919060010190610222565b5061024992915061024d565b5090565b5b80821115610249576000815560010161024e565b60006020808385031215610274578182fd5b823567ffffffffffffffff8082111561028b578384fd5b818501915085601f83011261029e578384fd5b8135818111156102b0576102b061040d565b604051601f8201601f19168101850183811182821017156102d3576102d361040d565b60405281815283820185018810156102e9578586fd5b818585018683013790810190930193909352509392505050565b60008251610315818460208701610389565b9190910192915050565b600060208252825180602084015261033e816040850160208701610389565b601f01601f19169190910160400192915050565b60208082526013908201527f5265737472696374656420746f204f776e657200000000000000000000000000604082015260600190565b60005b838110156103a457818101518382015260200161038c565b838111156103b3576000848401525b50505050565b6002810460018216806103cd57607f821691505b60208210811415610407577f4e487b7100000000000000000000000000000000000000000000000000000000600052602260045260246000fd5b50919050565b7f4e487b7100000000000000000000000000000000000000000000000000000000600052604160045260246000fdfea2646970667358221220c1aa3cbb33b03f10621af2932c53a03f14538700bd4c9a82613c730e39a2c1c764736f6c63430008000033",
  "immutableReferences": {},
  "source": "// SPDX-License-Identifier: MIT\npragma solidity >=0.4.22 <0.9.0;\n\ncontract Demo {\n    string public name;\n    address private owner;\n    \n    constructor() {\n        name=\"L\";\n        owner = msg.sender;\n    }\n\n    modifier restricted() {\n        require(msg.sender == owner, \"Restricted to Owner\");\n        _;\n    }\n\n    event ChangeName(address indexed user, string indexed new_name);\n\n    function change_name(string memory new_name) external restricted {\n        name = new_name;\n        emit ChangeName(msg.sender, new_name);\n    }\n}",
  "sourcePath": "/Users/hendrylim/Coding/LAB/contracts/Demo.sol",
  "compiler": {
    "name": "solc",
    "version": "0.8.0+commit.c7dfd78e.Emscripten.clang"
  },
  "schemaVersion": "3.4.3",
  "updatedAt": "2021-12-18T05:03:37.408Z",
  "networkType": "ethereum",
  "devdoc": {
    "kind": "dev",
    "methods": {},
    "version": 1
  },
  "userdoc": {
    "kind": "user",
    "methods": {},
    "version": 1
  }
}